:100000000C942A000C9447000C9447000C94470071
:100010000C9447000C9447000C9447000C94470044
:100020000C9447000C9447000C9447000C94470034
:100030000C9447000C9447000C9447000C94470024
:100040000C9447000C9447000C9447000C94470014
:100050000C94470011241FBECFE5D8E0DEBFCDBF12
:1000600013E0A0E6B0E0E2E0F8E302C005900D92F4
:10007000AE30B107D9F713E0AEE0B3E001C01D9296
:10008000A031B107E1F70E940F170C94FF1B0C94ED
:100090000000EF92FF920F931F937B018C0120E0F1
:1000A00030E040E05FE40E94F50388238CF0C80153
:1000B000B70120E030E040E05FE40E94C1010E940F
:1000C00055049B01AC01205030404040504806C0D0
:1000D000C801B7010E9455049B01AC01B901CA01D6
:1000E0001F910F91FF90EF900895A0E0B0E0EBE733
:1000F000F0E00C94C618DC012B01FA019C919230BF
:1001000008F439C1EB018881823008F433C194309E
:1001100069F4843009F02FC111969C91119789815F
:10012000981709F428C1ACEFB0E025C1843009F478
:1001300021C18230A9F4923009F01DC19A01AD01AC
:1001400088E0EA010990AE01E90109929E0181501F
:10015000C1F7E201898111969C918923818308C1AD
:10016000923009F407C112962D903C901397EB0141
:100170008A819B811496AD90BD90CD90DC901797AD
:10018000EC80FD800E811F819101281B390BB90184
:1001900037FF04C066277727621B730B6032710537
:1001A0000CF061C0121613066CF537014801062EDB
:1001B00004C096948794779467940A94D2F721E0C8
:1001C00030E040E050E004C0220F331F441F551FB1
:1001D0006A95D2F721503040404050402E213F21B7
:1001E00040235123211531054105510521F021E01E
:1001F00030E040E050E079018A01E628F72808293C
:1002000019293CC0232BD1F1260E371E350146019A
:10021000062E04C096948794779467940A94D2F734
:1002200021E030E040E050E004C0220F331F441FC3
:10023000551F6A95D2F721503040404050402A2146
:100240003B214C215D21211531054105510521F04E
:1002500021E030E040E050E059016A01A628B728CB
:10026000C828D9280BC0821593052CF01C01AA249C
:10027000BB24650103C0EE24FF24870111969C91E5
:10028000D20111968C91981709F445C0992339F041
:10029000A80197012A193B094C095D0906C0A6016E
:1002A00095012E193F09400B510B57FD08C01182D3
:1002B0003382228224833583468357831DC081E0A5
:1002C00081833382228288279927DC01821B930B4A
:1002D000A40BB50B84839583A683B7830DC0220F2F
:1002E000331F441F551F24833583468357838281E0
:1002F000938101979383828324813581468157813D
:10030000DA01C9010197A109B1098F5F9F4FAF4F72
:10031000BF4328F30BC0918333822282EA0CFB1C7B
:100320000C1D1D1DE482F5820683178383E0808304
:10033000248135814681578157FF1AC0C901AA27F8
:1003400097FDA095BA2F81709070A070B0705695EF
:10035000479537952795822B932BA42BB52B848318
:100360009583A683B7838281938101969383828349
:10037000DF0101C0D201CD01CDB7DEB7E2E10C94BF
:10038000E218A0E2B0E0E7ECF1E00C94D218698347
:100390007A838B839C832D833E834F835887E9E048
:1003A000EE2EF12CEC0EFD1ECE010196B7010E943F
:1003B00046068E010F5E1F4FCE010596B8010E94C2
:1003C00046068A8991E089278A8BC701B801AE0168
:1003D000475E5F4F0E9475000E947105A096E6E09F
:1003E0000C94EE18A0E2B0E0E8EFF1E00C94D21823
:1003F00069837A838B839C832D833E834F835887C5
:10040000F9E0EF2EF12CEC0EFD1ECE010196B701A6
:100410000E9446068E010F5E1F4FCE010596B80161
:100420000E944606C701B801AE01475E5F4F0E94B9
:1004300075000E947105A096E6E00C94EE18A0E20B
:10044000B0E0E5E2F2E00C94C61869837A838B830E
:100450009C832D833E834F835887CE010196BE0136
:10046000675F7F4F0E944606CE010596BE016F5E14
:100470007F4F0E9446069985923088F089898230A4
:10048000C8F0943019F4823051F404C0843029F457
:10049000923081F48CEF90E0C6C0923049F420E0B5
:1004A0009A858A89981321E02A87CE010996BBC0D4
:1004B000823049F420E09A858A89981321E02A8BBA
:1004C000CE014196B0C02D843E844F8458886D88FB
:1004D0007E888F88988CEE24FF248701AA24BB2471
:1004E000650140E050E060E070E0E0E0F0E0C10174
:1004F00081709070892BE9F0E60CF71C081D191D1E
:100500009A01AB012A0D3B1D4C1D5D1D80E090E062
:10051000A0E0B0E0E614F7040805190520F481E036
:1005200090E0A0E0B0E0BA01A901480F591F6A1F8E
:100530007B1FAA0CBB1CCC1CDD1C97FE08C081E0F5
:1005400090E0A0E0B0E0A82AB92ACA2ADB2A3196B6
:10055000E032F10549F0660C771C881C991C569412
:10056000479437942794C3CFFA85EA892B893C892D
:100570008B859C85280F391F2E5F3F4F17C0CA01FE
:1005800081709070892B61F016950795F794E79428
:1005900080E090E0A0E0B0E8E82AF92A0A2B1B2BC3
:1005A00076956795579547952F5F3F4F77FDE7CF36
:1005B0000CC0440F551F661F771F17FD4160EE0CDE
:1005C000FF1C001F111F21503040403090E05907A0
:1005D00090E0690790E4790760F32B8F3C8FDB0193
:1005E000CA018F779070A070B07080349105A1051A
:1005F000B10561F447FD0AC0E114F10401051105DC
:1006000029F0405C5F4F6F4F7F4F40781A8EFE1786
:1006100011F081E08A8F4D8F5E8F6F8F78A383E01A
:10062000898FCE0149960E947105A096E2E10C9453
:10063000E218A8E1B0E0EFE1F3E00C94CE18698392
:100640007A838B839C832D833E834F835887B9E0C5
:10065000EB2EF12CEC0EFD1ECE010196B7010E948F
:1006600046068E010F5E1F4FCE010596B8010E940F
:1006700046062985223008F47EC03989323010F4CC
:10068000B8017CC08A859A8989278A87243011F02D
:10069000223031F4231709F06EC06CEF70E06EC0A9
:1006A000343039F41D861E861F86188A1C861B86E8
:1006B00004C0323021F484E08987B7015FC02B8504
:1006C0003C858B899C89281B390B3C872B87ED84C3
:1006D000FE840F851889AD88BE88CF88D88CEA142F
:1006E000FB040C051D0540F4EE0CFF1C001F111F40
:1006F000215030403C872B8720E030E040E050E044
:1007000080E090E0A0E0B0E460E070E0EA14FB0478
:100710000C051D0540F0282B392B4A2B5B2BEA18C2
:10072000FB080C091D09B695A79597958795EE0CC2
:10073000FF1C001F111F6F5F7F4F6F31710531F775
:10074000DA01C9018F779070A070B0708034910584
:10075000A105B10561F427FD0AC0E114F10401050A
:10076000110529F0205C3F4F4F4F5F4F20782D87B8
:100770003E874F87588BBE01675F7F4FCB010E943A
:1007800071056896EAE00C94EA18A8E1B0E0EBEC99
:10079000F3E00C94D21869837A838B839C832D8336
:1007A0003E834F83588789E0E82EF12CEC0EFD1E26
:1007B000CE010196B7010E9446068E010F5E1F4FC3
:1007C000CE010596B8010E9446068985823040F028
:1007D0008989823028F0C701B8010E94BE0601C095
:1007E0008FEF6896E6E00C94EE18A8E1B0E0EBEF2E
:1007F000F3E00C94D21869837A838B839C832D83D6
:100800003E834F83588789E0E82EF12CEC0EFD1EC5
:10081000CE010196B7010E9446068E010F5E1F4F62
:10082000CE010596B8010E9446068985823040F0C7
:100830008989823028F0C701B8010E94BE0601C034
:100840008FEF6896E6E00C94EE18A8E1B0E0EBE2DA
:10085000F4E00C94D21869837A838B839C832D8374
:100860003E834F83588789E0E82EF12CEC0EFD1E65
:10087000CE010196B7010E9446068E010F5E1F4F02
:10088000CE010596B8010E9446068985823040F067
:100890008989823028F0C701B8010E94BE0601C0D4
:1008A00081E06896E6E00C94EE18ACE0B0E0EBE591
:1008B000F4E00C94D61869837A838B839C83CE01F1
:1008C0000196BE016B5F7F4F0E9446068D8182308C
:1008D00061F1823050F1843021F48E81882351F10E
:1008E0002EC02F81388537FD20C06E812F31310514
:1008F0001CF06623F9F023C08EE190E0821B930B7D
:1009000029853A854B855C8504C056954795379572
:1009100027958A95D2F76623B1F05095409530958A
:1009200021953F4F4F4F5F4F0EC020E030E040E039
:1009300050E009C02FEF3FEF4FEF5FE704C020E02A
:1009400030E040E050E8B901CA012C96E2E00C9496
:10095000F218A8E0B0E0EFEAF4E00C94CE187B01C6
:100960008C01611571058105910519F482E0898377
:1009700060C083E089838EE1C82ED12CDC82CB82DB
:10098000ED82FE820F831887C801B7010E942205FD
:10099000FC013197F7FF3BC0222733272E1B3F0B6B
:1009A00057016801022E04C0D694C794B794A79447
:1009B0000A94D2F740E050E060E070E081E090E01F
:1009C000A0E0B0E004C0880F991FAA1FBB1F2A95A2
:1009D000D2F70197A109B1098E219F21A023B1234C
:1009E0000097A105B10521F041E050E060E070E022
:1009F0004A295B296C297D294D835E836F83788723
:100A00008EE190E08E1B9F0B9C838B8312C03097EE
:100A100081F00E2E04C0EE0CFF1C001F111F0A9463
:100A2000D2F7ED82FE820F831887CE1ADF0ADC82AE
:100A3000CB821A82CE0101960E9471052896EAE0C7
:100A40000C94EA18EF92FF920F931F937B018C0195
:100A500080E0E81680E0F80681E0080780E01807EB
:100A600088F48FEFE816F1040105110531F028F044
:100A700088E090E0A0E0B0E017C080E090E0A0E067
:100A8000B0E012C080E0E81680E0F80680E00807D9
:100A900081E0180728F088E190E0A0E0B0E004C011
:100AA00080E190E0A0E0B0E020E230E040E050E003
:100AB000281B390B4A0B5B0B04C016950795F7945E
:100AC000E7948A95D2F7F701EC5FFE4F8081281BEF
:100AD000310941095109C9011F910F91FF90EF9010
:100AE0000895DF92EF92FF920F931F93FC01E48031
:100AF000F58006811781D1808081823048F480E0C2
:100B000090E0A0E1B0E0E82AF92A0A2B1B2BA5C04F
:100B1000843009F49FC0823021F4EE24FF24870141
:100B200005C0E114F1040105110519F4E0E0F0E05D
:100B300096C0628173819FEF623879070CF05BC0C9
:100B400022E83FEF261B370B2A3131052CF020E03D
:100B500030E040E050E02AC0B801A701022E04C0F6
:100B600076956795579547950A94D2F781E090E07E
:100B7000A0E0B0E004C0880F991FAA1FBB1F2A95F0
:100B8000D2F70197A109B1098E219F21A023B1239A
:100B90000097A105B10521F081E090E0A0E0B0E070
:100BA0009A01AB01282B392B4A2B5B2BDA01C901A7
:100BB0008F779070A070B07080349105A105B10559
:100BC00039F427FF09C0205C3F4F4F4F5F4F04C0EF
:100BD000215C3F4F4F4F5F4FE0E0F0E02030A0E05E
:100BE0003A07A0E04A07A0E45A0710F0E1E0F0E07D
:100BF00079018A0127C06038710564F5FB01E1586D
:100C0000FF4FD801C7018F779070A070B07080340B
:100C10009105A105B10539F4E7FE0DC080E490E02F
:100C2000A0E0B0E004C08FE390E0A0E0B0E0E80E08
:100C3000F91E0A1F1B1F17FF05C016950795F7948D
:100C4000E794319687E016950795F794E7948A958F
:100C5000D1F705C0EE24FF248701EFEFF0E06E2FFF
:100C6000679566276795902F9F77D794DD24D79453
:100C70008E2F8695492F462B582F5D29B701CA0123
:100C80001F910F91FF90EF90DF900895FC01DB0121
:100C9000408151812281622F6F7770E0221F2227CD
:100CA000221F9381892F880F822B282F30E0991FD4
:100CB0009927991F11969C93119721153105A9F534
:100CC000411551056105710511F482E037C082E8D4
:100CD0009FEF13969C938E9312979A01AB0167E056
:100CE000220F331F441F551F6A95D1F783E08C9361
:100CF0000DC0220F331F441F551F12968D919C91DA
:100D00001397019713969C938E931297203080E04F
:100D1000380780E0480780E4580758F314962D936D
:100D20003D934D935C93179708952F3F310579F4C8
:100D3000411551056105710519F484E08C930895FE
:100D400064FF03C081E08C9312C01C9210C02F5727
:100D5000304013963C932E93129783E08C9387E058
:100D6000440F551F661F771F8A95D1F7706414963C
:100D70004D935D936D937C93179708951F93DC01BA
:100D8000FB019C91923008F447C08081823008F4C6
:100D900043C0943051F411961C91843099F58181AF
:100DA000682F70E0611B71093FC0843021F09230E0
:100DB00031F48230B9F18181882389F12DC01196F7
:100DC0001C9111978230F1F081811817D9F4129695
:100DD0002D913C911397828193818217930794F010
:100DE00028173907BCF014968D919D910D90BC91F8
:100DF000A02D2481358146815781281739074A075C
:100E00005B0718F4112341F00AC082179307A40767
:100E1000B50740F4112319F061E070E005C06FEFF1
:100E20007FEF02C060E070E0CB011F910895DF9377
:100E3000CF9300D000D0CDB7DEB79C838B838B815E
:100E40009C81CC01A0E0B0E0BC01CD010E94A904CE
:100E5000DC01CB01BC01CD0120E030E040E051E4F9
:100E60000E941F02DC01CB019C01AD0160E074E235
:100E700084EF9AE40E941903DC01CB01BC01CD018F
:100E800020E030E040E85FE30E94C101DC01CB01DB
:100E9000BC01CD010E944900DC01CB019A8389830A
:100EA000E9E2F0E089818083E0E4F0E089819A81E1
:100EB000892F99278083ABE2B0E0EBE2F0E08081FC
:100EC00082608C93EAE2F0E01082AAE2B0E0EAE20B
:100ED000F0E0808188608C93AAE2B0E0EAE2F0E082
:100EE000808180618C93E0E4F0E01082A0E4B0E0C7
:100EF000E0E4F0E0808180688C93A0E4B0E0E0E47E
:100F0000F0E0808184608C93A0E4B0E0E0E4F0E065
:100F1000808182608C930F900F900F900F90CF91F3
:100F2000DF910895DF93CF930F92CDB7DEB789831A
:100F3000EBE2F0E08081882F90E0807290709595D0
:100F40008795959587959595879595958795959589
:100F50008795009769F3ECE2F0E0898180830F9038
:100F6000CF91DF910895DF93CF93CDB7DEB7EBE25A
:100F7000F0E08081881F8827881F882F90E090707C
:100F80000097A9F3ECE2F0E08081CF91DF91089522
:100F9000DF93CF9300D0CDB7DEB79A8389830AC0A1
:100FA000E981FA8180810E94920789819A81019664
:100FB0009A838983E981FA818081882389F70F9058
:100FC0000F90CF91DF910895DF93CF9300D000D0A1
:100FD0000F92CDB7DEB749835A836B837C838D83B1
:100FE000E3E5F0E01082A3E5B0E0E3E5F0E0908116
:100FF0008981892B8C93A3E5B0E0E3E5F0E0808163
:1010000080688C938A81882359F48C81813069F5BA
:10101000A9E5B0E0E9E5F0E0808181608C9325C02E
:101020008A81813011F58C81813039F4A9E5B0E0F5
:10103000E9E5F0E0808182608C93A3E5B0E0E3E530
:10104000F0E0808188608C93A3E5B0E0E3E5F0E018
:101050008081282F8B81882F90E082959295907FB8
:101060009827807F9827822B8C93E2E5F0E08D8192
:1010700080830F900F900F900F900F90CF91DF9182
:101080000895DF93CF930F92CDB7DEB78983ECE558
:10109000F0E0898180830F90CF91DF910895DF93F5
:1010A000CF93CDB7DEB7E3E5F0E01082CF91DF91CB
:1010B0000895DF93CF9300D0CDB7DEB79A838983AD
:1010C000AEE4B0E0EEE4F0E0808181608C93AEE4C9
:1010D000B0E0EEE4F0E0808184608C93AFE4B0E0B7
:1010E000EFE4F0E080818E7F8C93AFE4B0E0EFE43A
:1010F000F0E0808182608C93AEE4B0E0EEE4F0E05A
:10110000808188608C93AEE4B0E0EEE4F0E0808112
:1011100080618C93AFE4B0E0EFE4F0E08081877F02
:101120008C93AFE4B0E0EFE4F0E080818F7B8C93B0
:10113000AFE4B0E0EFE4F0E0808180688C93E6E417
:10114000F0E089819A8191838083ECE4F0E0118260
:1011500010820F900F90CF91DF910895DF93CF937E
:1011600000D0CDB7DEB79A838983EAE4F0E08981C5
:101170009A81918380830F900F90CF91DF91089592
:10118000DF93CF93CDB7DEB727970FB6F894DEBFC6
:101190000FBECDBF89836A834B838B81813009F079
:1011A0006FC08981282F30E03F832E838E819F81FD
:1011B0008130910549F12E813F81223031052CF497
:1011C0008E819F81009761F0D2C02E813F812230B5
:1011D000310571F18E819F8183309105E9F1C7C09E
:1011E000AAE3B0E0EAE3F0E08081482F8A81282F6B
:1011F00030E081E090E0022E02C0880F991F0A942F
:10120000E2F7842B8C93B3C0A7E3B0E0E7E3F0E010
:101210008081482F8A81282F30E081E090E0022EE3
:1012200002C0880F991F0A94E2F7842B8C939FC009
:10123000A4E3B0E0E4E3F0E08081482F8A81282F26
:1012400030E081E090E0022E02C0880F991F0A94DE
:10125000E2F7842B8C938BC0A1E3B0E0E1E3F0E0F4
:101260008081482F8A81282F30E081E090E0022E93
:1012700002C0880F991F0A94E2F7842B8C9377C0E1
:101280008B81882309F073C08981282F30E03D834A
:101290002C838C819D818130910559F12C813D8178
:1012A000223031052CF48C819D81009769F05FC05C
:1012B0002C813D812230310589F18C819D818330E3
:1012C000910509F440C053C0AAE3B0E0EAE3F0E0BE
:1012D0008081482F8A81282F30E081E090E0022E23
:1012E00002C0880F991F0A94E2F7809584238C939B
:1012F0003EC0A7E3B0E0E7E3F0E08081482F8A81B9
:10130000282F30E081E090E0022E02C0880F991F64
:101310000A94E2F7809584238C9329C0A4E3B0E07B
:10132000E4E3F0E08081482F8A81282F30E081E0DB
:1013300090E0022E02C0880F991F0A94E2F7809570
:1013400084238C9314C0A1E3B0E0E1E3F0E080815A
:10135000482F8A81282F30E081E090E0022E02C0E1
:10136000880F991F0A94E2F7809584238C9327961F
:101370000FB6F894DEBF0FBECDBFCF91DF910895B9
:10138000DF93CF93CDB7DEB727970FB6F894DEBFC4
:101390000FBECDBF89836A834B838B81813009F077
:1013A0006FC08981282F30E03F832E838E819F81FB
:1013B0008130910549F12E813F81223031052CF495
:1013C0008E819F81009761F0D2C02E813F812230B3
:1013D000310571F18E819F8183309105E9F1C7C09C
:1013E000ABE3B0E0EBE3F0E08081482F8A81282F67
:1013F00030E081E090E0022E02C0880F991F0A942D
:10140000E2F7842B8C93B3C0A8E3B0E0E8E3F0E00C
:101410008081482F8A81282F30E081E090E0022EE1
:1014200002C0880F991F0A94E2F7842B8C939FC007
:10143000A5E3B0E0E5E3F0E08081482F8A81282F22
:1014400030E081E090E0022E02C0880F991F0A94DC
:10145000E2F7842B8C938BC0A2E3B0E0E2E3F0E0F0
:101460008081482F8A81282F30E081E090E0022E91
:1014700002C0880F991F0A94E2F7842B8C9377C0DF
:101480008B81882309F073C08981282F30E03D8348
:101490002C838C819D818130910559F12C813D8176
:1014A000223031052CF48C819D81009769F05FC05A
:1014B0002C813D812230310589F18C819D818330E1
:1014C000910509F440C053C0ABE3B0E0EBE3F0E0BA
:1014D0008081482F8A81282F30E081E090E0022E21
:1014E00002C0880F991F0A94E2F7809584238C9399
:1014F0003EC0A8E3B0E0E8E3F0E08081482F8A81B5
:10150000282F30E081E090E0022E02C0880F991F62
:101510000A94E2F7809584238C9329C0A5E3B0E078
:10152000E5E3F0E08081482F8A81282F30E081E0D8
:1015300090E0022E02C0880F991F0A94E2F780956E
:1015400084238C9314C0A2E3B0E0E2E3F0E0808156
:10155000482F8A81282F30E081E090E0022E02C0DF
:10156000880F991F0A94E2F7809584238C9327961D
:101570000FB6F894DEBF0FBECDBFCF91DF910895B7
:10158000DF93CF9300D000D00F92CDB7DEB78A8320
:101590006B8319828A81282F30E03D832C834C8114
:1015A0005D8141305105B1F18C819D818230910581
:1015B00034F42C813D812115310571F084C04C81BA
:1015C0005D814230510509F443C08C819D81833097
:1015D000910509F45BC077C0E9E3F0E08081482F12
:1015E00050E08B81282F30E081E090E002C0880F2E
:1015F000991F2A95E2F79A01282339238B81882F96
:1016000090E0A90102C0559547958A95E2F7CA0175
:10161000898359C0E6E3F0E08081482F50E08B8158
:10162000282F30E081E090E002C0880F991F2A95B2
:10163000E2F79A01282339238B81882F90E0A901B2
:1016400002C0559547958A95E2F7CA0189833BC048
:10165000E3E3F0E08081482F50E08B81282F30E0D9
:1016600081E090E002C0880F991F2A95E2F79A0165
:10167000282339238B81882F90E0A90102C055953A
:1016800047958A95E2F7CA0189831DC0E0E3F0E03F
:101690008081482F50E08B81282F30E081E090E05E
:1016A00002C0880F991F2A95E2F79A01282339234F
:1016B0008B81882F90E0A90102C0559547958A95A6
:1016C000E2F7CA01898389810F900F900F900F90E4
:1016D0000F90CF91DF910895DF93CF9300D000D08A
:1016E000CDB7DEB789836A838981282F30E03C83B8
:1016F0002B838B819C8181309105D1F02B813C81A2
:10170000223031052CF48B819C81009761F01EC042
:101710002B813C812230310581F08B819C8183308B
:10172000910581F013C0EAE3F0E08A8180830EC066
:10173000E7E3F0E08A81808309C0E4E3F0E08A8196
:10174000808304C0E1E3F0E08A8180830F900F90F2
:101750000F900F90CF91DF910895DF93CF9300D03A
:1017600000D0CDB7DEB789838981282F30E03C8354
:101770002B838B819C8181309105D1F02B813C8121
:10178000223031052CF48B819C81009761F01FC0C1
:101790002B813C812230310581F08B819C8183300B
:1017A000910581F014C0EBE3F0E090819A8310C0C2
:1017B000E8E3F0E020812A830BC0E5E3F0E030812C
:1017C0003A8306C0E2E3F0E080818A8301C01A8296
:1017D0008A810F900F900F900F90CF91DF91089515
:1017E000DF93CF9300D000D0CDB7DEB789836A8373
:1017F0008981282F30E03C832B838B819C81813031
:101800009105D1F02B813C81223031052CF48B8164
:101810009C81009761F01EC02B813C8122303105F4
:1018200081F08B819C818330910581F013C0EBE3C3
:10183000F0E08A8180830EC0E8E3F0E08A81808353
:1018400009C0E5E3F0E08A81808304C0E2E3F0E0D0
:101850008A8180830F900F900F900F90CF91DF912E
:101860000895DF93CF9300D000D0CDB7DEB78A8341
:101870008A81282F30E03C832B838B819C818130AF
:101880009105D1F02B813C81223031052CF48B81E4
:101890009C81009761F01EC02B813C812230310574
:1018A00081F08B819C818330910581F013C0E9E345
:1018B000F0E0808189830EC0E6E3F0E080818983D7
:1018C00009C0E3E3F0E08081898304C0E0E3F0E055
:1018D0008081898389810F900F900F900F90CF9115
:1018E000DF910895DF93CF93CDB7DEB7A6E2B0E0E6
:1018F000E6E2F0E0808180688C93A6E2B0E0E6E268
:10190000F0E0808184608C93A6E2B0E0E6E2F0E053
:10191000808182608C93A6E2B0E0E6E2F0E0808114
:1019200081608C93A7E2B0E0E7E2F0E080818F77FE
:101930008C93A7E2B0E0E7E2F0E080818F7B8C93AC
:10194000A7E2B0E0E7E2F0E080818F7D8C93CF9159
:10195000DF910895DF93CF930F92CDB7DEB78983E0
:101960008981873030F5A7E2B0E0E7E2F0E08081DE
:10197000807E8C93A7E2B0E0E7E2F0E0908189817D
:10198000892B8C93A6E2B0E0E6E2F0E080818064EF
:101990008C93E6E2F0E08081882F90E08071907077
:1019A0000097B9F3A6E2B0E0E6E2F0E08081806162
:1019B0008C93E4E2F0E0808191810F90CF91DF91F0
:1019C00008950F931F93DF93CF93CDB7DEB7C8551C
:1019D000D0400FB6F894DEBF0FBECDBFFE01EB5A6C
:1019E000FF4F6083718382839383FE01EB5AFF4F25
:1019F00080816FEF0E946C0BFE01EB5AFF4F8181DB
:101A0000FE01EB5AFF4F9281692F41E00E94C0080E
:101A1000FE01EB5AFF4F8181FE01EB5AFF4F93818C
:101A2000692F41E00E94C008FE01EF5AFF4F80E09D
:101A300090E0A0EFB1E480839183A283B3838E0111
:101A4000035B1F4FFE01EF5AFF4F6081718182815E
:101A5000938120E030E04AEF54E40E941F02DC0151
:101A6000CB01F80180839183A283B383FE01E35B02
:101A7000FF4F608171818281938120E030E040E8F6
:101A80005FE30E942504882344F4FE01E55BFF4FD9
:101A900081E090E09183808364C0FE01E35BFF4FAF
:101AA000608171818281938120E03FEF4FE757E4AD
:101AB0000E94C50318160CF043C0FE01EF5AFF4FF9
:101AC000608171818281938120E030E040E251E4C5
:101AD0000E941F02DC01CB018E01055B1F4FBC0180
:101AE000CD010E944900DC01CB01F8019183808384
:101AF0001FC0FE01E75BFF4F88EC90E0918380837D
:101B0000FE01E75BFF4F808191810197F1F7FE01B4
:101B1000E75BFF4F91838083DE01A55BBF4FFE0132
:101B2000E55BFF4F80819181019711969C938E9385
:101B3000FE01E55BFF4F808191810097D1F627C0C0
:101B40008E01055B1F4FFE01E35BFF4F60817181DA
:101B5000828193810E944900DC01CB01F8019183CD
:101B60008083DE01A95BBF4FFE01E55BFF4F8081F3
:101B700091818D939C93FE01E95BFF4F8081918160
:101B80000197F1F7FE01E95BFF4F91838083FE012E
:101B9000EB5AFF4F608171818281938142E00E9404
:101BA0006A11FE01ED5BFF4F80E090E0A0E7B1E439
:101BB00080839183A283B3838E01015C1F4FFE015A
:101BC000ED5BFF4F608171818281938120E030E085
:101BD0004AEF54E40E941F02DC01CB01F80180832C
:101BE0009183A283B383FE01FF966081718182811C
:101BF000938120E030E040E85FE30E9425048823E1
:101C00002CF481E090E09EAF8DAF46C0FE01FF96C0
:101C1000608171818281938120E03FEF4FE757E43B
:101C20000E94C503181664F5FE01ED5BFF4F60814D
:101C300071818281938120E030E040E251E40E9492
:101C40001F02DC01CB01BC01CD010E944900DC0177
:101C5000CB019EAF8DAF0FC088EC90E09CAF8BAFF7
:101C60008BAD9CAD0197F1F79CAF8BAF8DAD9EAD69
:101C700001979EAF8DAF8DAD9EAD009769F716C0F1
:101C8000FE01FF9660817181828193810E944900EB
:101C9000DC01CB019EAF8DAF8DAD9EAD9AAF89AF0C
:101CA00089AD9AAD0197F1F79AAF89AFFE01EB5A72
:101CB000FF4F608171818281938148E30E946A11A4
:101CC00080E090E0A0E8BFE38DAB9EABAFABB8AFD8
:101CD0006DA97EA98FA998AD20E030E04AEF54E4C9
:101CE0000E941F02DC01CB0189AB9AABABABBCAB52
:101CF00069A97AA98BA99CA920E030E040E85FE3BC
:101D00000E94250488232CF481E090E098AB8FA7F3
:101D10003FC069A97AA98BA99CA920E03FEF4FE7B2
:101D200057E40E94C50318164CF56DA97EA98FA92A
:101D300098AD20E030E040E251E40E941F02DC0157
:101D4000CB01BC01CD010E944900DC01CB0198AB65
:101D50008FA70FC088EC90E09EA78DA78DA59EA5AC
:101D60000197F1F79EA78DA78FA598A9019798AB2A
:101D70008FA78FA598A9009769F714C069A97AA9B8
:101D80008BA99CA90E944900DC01CB0198AB8FA7CD
:101D90008FA598A99CA78BA78BA59CA50197F1F768
:101DA0009CA78BA7FE01EB5AFF4F60817181828156
:101DB00093814CE00E946A1180E090E0A0E8BFE3CC
:101DC0008FA398A7A9A7BAA76FA178A589A59AA557
:101DD00020E030E04AEF54E40E941F02DC01CB0116
:101DE0008BA39CA3ADA3BEA36BA17CA18DA19EA13F
:101DF00020E030E040E85FE30E94250488232CF4D3
:101E000081E090E09AA389A33FC06BA17CA18DA142
:101E10009EA120E03FEF4FE757E40E94C50318164C
:101E20004CF56FA178A589A59AA520E030E040E2A5
:101E300051E40E941F02DC01CB01BC01CD010E94D4
:101E40004900DC01CB019AA389A30FC088EC90E084
:101E500098A38F8F8F8D98A10197F1F798A38F8FFB
:101E600089A19AA101979AA389A389A19AA1009710
:101E700069F714C06BA17CA18DA19EA10E944900AD
:101E8000DC01CB019AA389A389A19AA19E8F8D8F92
:101E90008D8D9E8D0197F1F79E8F8D8FFE01EB5AF0
:101EA000FF4F608171818281938141E00E946A11BC
:101EB00080E090E0A0E7B1E4898F9A8FAB8FBC8F70
:101EC000698D7A8D8B8D9C8D20E030E04AEF54E453
:101ED0000E941F02DC01CB018D8B9E8BAF8BB88FD4
:101EE0006D897E898F89988D20E030E040E85FE33E
:101EF0000E94250488232CF481E090E09C8B8B8B3E
:101F00003FC06D897E898F89988D20E03FEF4FE734
:101F100057E40E94C50318164CF5698D7A8D8B8D98
:101F20009C8D20E030E040E251E40E941F02DC0181
:101F3000CB01BC01CD010E944900DC01CB019C8B8F
:101F40008B8B0FC088EC90E09A8B898B89899A895A
:101F50000197F1F79A8B898B8B899C8901979C8BD0
:101F60008B8B8B899C89009769F714C06D897E895A
:101F70008F89988D0E944900DC01CB019C8B8B8B53
:101F80008B899C89988B8F878F8598890197F1F72A
:101F9000988B8F87FE01EB5AFF4F608171818281A0
:101FA000938146E00E946A1180E090E0A0E0B0E4F6
:101FB0008B879C87AD87BE876B857C858D859E854D
:101FC00020E030E04AEF54E40E941F02DC01CB0124
:101FD0008F839887A987BA876F81788589859A8545
:101FE00020E030E040E85FE30E94250488232CF4E1
:101FF00081E090E09E838D833FC06F8178858985E5
:102000009A8520E03FEF4FE757E40E94C50318167A
:102010004CF56B857C858D859E8520E030E040E227
:1020200051E40E941F02DC01CB01BC01CD010E94E2
:102030004900DC01CB019E838D830FC088EC90E0CA
:102040009C838B838B819C810197F1F79C838B838D
:102050008D819E8101979E838D838D819E810097C6
:1020600069F714C06F81788589859A850E94490037
:10207000DC01CB019E838D838D819E819A83898330
:1020800089819A810197F1F79A838983C85ADF4F32
:102090000FB6F894DEBF0FBECDBFCF91DF911F9179
:1020A0000F910895DF93CF93CDB7DEB7A1970FB609
:1020B000F894DEBF0FBECDBF6D8F7E8F8F8F98A33C
:1020C00049A38E8D9F8D692F41E00E94C0098E8D9E
:1020D00098A1692F41E00E94C0098D8D69A10E94DD
:1020E000F00B8E8D98A1692F40E00E94C00980E01E
:1020F00090E0A0EAB0E4898F9A8FAB8FBC8F698D96
:102100007A8D8B8D9C8D20E030E04AEF54E40E9464
:102110001F02DC01CB018D8B9E8BAF8BB88F6D893D
:102120007E898F89988D20E030E040E85FE30E944F
:10213000250488232CF481E090E09C8B8B8B3FC09E
:102140006D897E898F89988D20E03FEF4FE757E4B6
:102150000E94C50318164CF5698D7A8D8B8D9C8D68
:1021600020E030E040E251E40E941F02DC01CB019C
:10217000BC01CD010E944900DC01CB019C8B8B8B03
:102180000FC088EC90E09A8B898B89899A89019796
:10219000F1F79A8B898B8B899C8901979C8B8B8B10
:1021A0008B899C89009769F714C06D897E898F8916
:1021B000988D0E944900DC01CB019C8B8B8B8B8915
:1021C0009C89988B8F878F8598890197F1F7988BD9
:1021D0008F878E8D98A1692F41E00E94C00980E011
:1021E00090E0A0E2B1E48B879C87AD87BE876B85CA
:1021F0007C858D859E8520E030E04AEF54E40E9486
:102200001F02DC01CB018F839887A987BA876F8172
:10221000788589859A8520E030E040E85FE30E9478
:10222000250488232CF481E090E09E838D833FC0B9
:102230006F81788589859A8520E03FEF4FE757E4E5
:102240000E94C50318164CF56B857C858D859E858F
:1022500020E030E040E251E40E941F02DC01CB01AB
:10226000BC01CD010E944900DC01CB019E838D831E
:102270000FC088EC90E09C838B838B819C810197BD
:10228000F1F79C838B838D819E8101979E838D8343
:102290008D819E81009769F714C06F81788589854B
:1022A0009A850E944900DC01CB019E838D838D813C
:1022B0009E819A83898389819A810197F1F79A8314
:1022C0008983A1960FB6F894DEBF0FBECDBFCF9124
:1022D000DF910895DF93CF93CDB7DEB7A1970FB607
:1022E000F894DEBF0FBECDBF6D8F7E8F8F8F98A30A
:1022F00049A38E8D9F8D692F40E00E94C0098E8D6D
:1023000098A1692F41E00E94C0098D8D69A10E94AA
:10231000F00B8E8D98A1692F40E00E94C00980E0EB
:1023200090E0A0EAB0E4898F9A8FAB8FBC8F698D63
:102330007A8D8B8D9C8D20E030E04AEF54E40E9432
:102340001F02DC01CB018D8B9E8BAF8BB88F6D890B
:102350007E898F89988D20E030E040E85FE30E941D
:10236000250488232CF481E090E09C8B8B8B3FC06C
:102370006D897E898F89988D20E03FEF4FE757E484
:102380000E94C50318164CF5698D7A8D8B8D9C8D36
:1023900020E030E040E251E40E941F02DC01CB016A
:1023A000BC01CD010E944900DC01CB019C8B8B8BD1
:1023B0000FC088EC90E09A8B898B89899A89019764
:1023C000F1F79A8B898B8B899C8901979C8B8B8BDE
:1023D0008B899C89009769F714C06D897E898F89E4
:1023E000988D0E944900DC01CB019C8B8B8B8B89E3
:1023F0009C89988B8F878F8598890197F1F7988BA7
:102400008F878E8D98A1692F41E00E94C00980E0DE
:1024100090E0A0E2B1E48B879C87AD87BE876B8597
:102420007C858D859E8520E030E04AEF54E40E9453
:102430001F02DC01CB018F839887A987BA876F8140
:10244000788589859A8520E030E040E85FE30E9446
:10245000250488232CF481E090E09E838D833FC087
:102460006F81788589859A8520E03FEF4FE757E4B3
:102470000E94C50318164CF56B857C858D859E855D
:1024800020E030E040E251E40E941F02DC01CB0179
:10249000BC01CD010E944900DC01CB019E838D83EC
:1024A0000FC088EC90E09C838B838B819C8101978B
:1024B000F1F79C838B838D819E8101979E838D8311
:1024C0008D819E81009769F714C06F817885898519
:1024D0009A850E944900DC01CB019E838D838D810A
:1024E0009E819A83898389819A810197F1F79A83E2
:1024F0008983A1960FB6F894DEBF0FBECDBFCF91F2
:10250000DF910895DF93CF93CDB7DEB765970FB610
:10251000F894DEBF0FBECDBF688B798B8A8B9B8B07
:102520005D8B4C8B1F8685C08F85282F30E08C8972
:102530009D89FC01E20FF31F2081688979898A89CE
:102540009B89422F0E9452108F858F5F8F8780E07A
:1025500090E0A0E0B0E48B879C87AD87BE876B8559
:102560007C858D859E8520E030E04AEF54E40E9412
:102570001F02DC01CB018F839887A987BA876F81FF
:10258000788589859A8520E030E040E85FE30E9405
:10259000250488232CF481E090E09E838D833FC046
:1025A0006F81788589859A8520E03FEF4FE757E472
:1025B0000E94C50318164CF56B857C858D859E851C
:1025C00020E030E040E251E40E941F02DC01CB0138
:1025D000BC01CD010E944900DC01CB019E838D83AB
:1025E0000FC088EC90E09C838B838B819C8101974A
:1025F000F1F79C838B838D819E8101979E838D83D0
:102600008D819E81009769F714C06F8178858985D7
:102610009A850E944900DC01CB019E838D838D81C8
:102620009E819A83898389819A810197F1F79A83A0
:1026300089838F85282F30E08C899D89FC01E20FEA
:10264000F31F8081882309F06FCF65960FB6F89449
:10265000DEBF0FBECDBFCF91DF910895DF93CF9343
:10266000CDB7DEB728970FB6F894DEBF0FBECDBF4B
:1026700069837A838B839C834D832E838D81803104
:1026800028F58E81282F30E038872F838F81988519
:10269000009731F02F8138852130310561F016C067
:1026A0008D81282F206869817A818B819C81422FBE
:1026B0000E946A110BC08D81805C8068282F69811F
:1026C0007A818B819C81422F0E946A1128960FB6D5
:1026D000F894DEBF0FBECDBFCF91DF910895DF9399
:1026E000CF9300D00F92CDB7DEB769837A838B8307
:1026F00089816FE00E946C0B0F900F900F90CF912B
:10270000DF910895DF93CF93CDB7DEB7A2970FB6D1
:10271000F894DEBF0FBECDBF68A379A38AA31F8E36
:102720001E8E8FEF8D8F1F8E27C148A18F8D282F72
:1027300030E081E090E002C0880F991F2A95E2F70F
:10274000982F9095842F692F0E94F00B80E090E0E5
:10275000A0E2B1E4898F9A8FAB8FBC8F698D7A8D9F
:102760008B8D9C8D20E030E04AEF54E40E941F02E4
:10277000DC01CB018D8B9E8BAF8BB88F6D897E89F1
:102780008F89988D20E030E040E85FE30E942504C7
:1027900088232CF481E090E09C8B8B8B3FC06D896B
:1027A0007E898F89988D20E03FEF4FE757E40E94A4
:1027B000C50318164CF5698D7A8D8B8D9C8D20E0A4
:1027C00030E040E251E40E941F02DC01CB01BC0179
:1027D000CD010E944900DC01CB019C8B8B8B0FC08B
:1027E00088EC90E09A8B898B89899A890197F1F717
:1027F0009A8B898B8B899C8901979C8B8B8B8B897E
:102800009C89009769F714C06D897E898F89988D9E
:102810000E944900DC01CB019C8B8B8B8B899C89AE
:10282000988B8F878F8598890197F1F7988B8F8781
:102830001E8E29C088A10E94310C282F30E08E8D79
:10284000882F90E00496A90102C0559547958A9576
:10285000E2F7CA0181709070009791F48F8D482F34
:1028600050E08E8D282F30E0CA01880F991F880F05
:10287000991F820F931FFC01EC5FFD4F80818D8FAC
:102880008E8D8F5F8E8F9AA18E8D891798F280E042
:1028900090E0A0E2B1E48B879C87AD87BE876B8513
:1028A0007C858D859E8520E030E04AEF54E40E94CF
:1028B0001F02DC01CB018F839887A987BA876F81BC
:1028C000788589859A8520E030E040E85FE30E94C2
:1028D000250488232CF481E090E09E838D833FC003
:1028E0006F81788589859A8520E03FEF4FE757E42F
:1028F0000E94C50318164CF56B857C858D859E85D9
:1029000020E030E040E251E40E941F02DC01CB01F4
:10291000BC01CD010E944900DC01CB019E838D8367
:102920000FC088EC90E09C838B838B819C81019706
:10293000F1F79C838B838D819E8101979E838D838C
:102940008D819E81009769F714C06F817885898594
:102950009A850E944900DC01CB019E838D838D8185
:102960009E819A83898389819A810197F1F79A835D
:1029700089838F8D8F5F8F8F99A18F8D891708F431
:10298000D4CE8D8DA2960FB6F894DEBF0FBECDBF0C
:10299000CF91DF910895DF93CF93CDB7DEB76C97DA
:1029A0000FB6F894DEBF0FBECDBF80E060E041E01F
:1029B0000E94C00980E090E0AAE7B4E4898F9A8F72
:1029C000AB8FBC8F698D7A8D8B8D9C8D20E030E034
:1029D0004AEF54E40E941F02DC01CB018D8B9E8BD9
:1029E000AF8BB88F6D897E898F89988D20E030E01C
:1029F00040E85FE30E94250488232CF481E090E006
:102A00009C8B8B8B3FC06D897E898F89988D20E050
:102A10003FEF4FE757E40E94C50318164CF5698D48
:102A20007A8D8B8D9C8D20E030E040E251E40E9455
:102A30001F02DC01CB01BC01CD010E944900DC0179
:102A4000CB019C8B8B8B0FC088EC90E09A8B898B91
:102A500089899A890197F1F79A8B898B8B899C894F
:102A600001979C8B8B8B8B899C89009769F714C08D
:102A70006D897E898F89988D0E944900DC01CB0188
:102A80009C8B8B8B8B899C89988B8F878F85988962
:102A90000197F1F7988B8F8780E060E040E00E941B
:102AA000C00980E090E0AAE7B4E48B879C87AD87FB
:102AB000BE876B857C858D859E8520E030E04AEF62
:102AC00054E40E941F02DC01CB018F839887A98701
:102AD000BA876F81788589859A8520E030E040E863
:102AE0005FE30E94250488232CF481E090E09E831C
:102AF0008D833FC06F81788589859A8520E03FEF7F
:102B00004FE757E40E94C50318164CF56B857C858A
:102B10008D859E8520E030E040E251E40E941F0256
:102B2000DC01CB01BC01CD010E944900DC01CB01DD
:102B30009E838D830FC088EC90E09C838B838B8178
:102B40009C810197F1F79C838B838D819E810197F6
:102B50009E838D838D819E81009769F714C06F815C
:102B6000788589859A850E944900DC01CB019E8386
:102B70008D838D819E819A83898389819A81019732
:102B8000F1F79A8389836C960FB6F894DEBF0FBE77
:102B9000CDBFCF91DF910895DF93CF93CDB7DEB74F
:102BA0002E970FB6F894DEBF0FBECDBF80E061E078
:102BB00041E00E94C00980E090E0AAE7B4E48B877E
:102BC0009C87AD87BE876B857C858D859E8520E043
:102BD00030E04AEF54E40E941F02DC01CB018F83F6
:102BE0009887A987BA876F81788589859A8520E03B
:102BF00030E040E85FE30E94250488232CF481E064
:102C000090E09E838D833FC06F81788589859A850A
:102C100020E03FEF4FE757E40E94C50318164CF53C
:102C20006B857C858D859E8520E030E040E251E417
:102C30000E941F02DC01CB01BC01CD010E944900B2
:102C4000DC01CB019E838D830FC088EC90E09C83D8
:102C50008B838B819C810197F1F79C838B838D8182
:102C60009E8101979E838D838D819E81009769F758
:102C700014C06F81788589859A850E944900DC019E
:102C8000CB019E838D838D819E819A8389838981E7
:102C90009A810197F1F79A8389832E960FB6F8945B
:102CA000DEBF0FBECDBFCF91DF910895DF93CF93ED
:102CB000CDB7DEB72E970FB6F894DEBF0FBECDBFEF
:102CC00080E061E040E00E94C00980E090E0AAE777
:102CD000B4E48B879C87AD87BE876B857C858D85AB
:102CE0009E8520E030E04AEF54E40E941F02DC01A0
:102CF000CB018F839887A987BA876F81788589856B
:102D00009A8520E030E040E85FE30E9425048823B4
:102D10002CF481E090E09E838D833FC06F817885A5
:102D200089859A8520E03FEF4FE757E40E94C5036D
:102D300018164CF56B857C858D859E8520E030E0EE
:102D400040E251E40E941F02DC01CB01BC01CD0135
:102D50000E944900DC01CB019E838D830FC088EC6B
:102D600090E09C838B838B819C810197F1F79C83FE
:102D70008B838D819E8101979E838D838D819E8122
:102D8000009769F714C06F81788589859A850E94BC
:102D90004900DC01CB019E838D838D819E819A83C6
:102DA000898389819A810197F1F79A8389832E9685
:102DB0000FB6F894DEBF0FBECDBFCF91DF9108955F
:102DC000DF93CF9300D000D00F92CDB7DEB71C8237
:102DD00081E08A8385E089831D8281E08B838FEF88
:102DE0000E94410849815A816B817C818D810E94BA
:102DF000E4070F900F900F900F900F90CF91DF91FD
:102E00000895DF93CF93CDB7DEB70E944F0881E0DE
:102E100063E040E00E94C009CF91DF910895DF9305
:102E2000CF93CDB7DEB7C95FD0400FB6F894DEBF01
:102E30000FBECDBF1C861B861A8619861C821B827C
:102E400080E060E041E00E94C00880E061E041E095
:102E50000E94C00881E063E041E00E94C00880E871
:102E600095E20E94170780E690E00E94C8070E9442
:102E7000B3078C878A85282F30E0CE010D96FC01A0
:102E8000E20FF31F8C8580838A858F5F8A878C850C
:102E90008D3009F06DC1CE010D9623E730E0B90108
:102EA0000E94101998878F838F819885009709F465
:102EB00051C1CE018F589F4F60E070E04FE050E06D
:102EC0000E940219CE0180589F4F60E070E04AE0F6
:102ED00050E00E940219CE0186579F4F60E070E0DB
:102EE0004AE050E00E940219CE010D9627E730E03B
:102EF000B9010E94FD189E838D83198654C089856F
:102F0000282F30E0C850DF4F39832883C85FD04076
:102F1000C850DF4F88819981C85FD04081309105CA
:102F2000E1F0C850DF4F28813981C85FD04022309E
:102F300031056CF1C850DF4F88819981C85FD0405E
:102F40008230910599F0C850DF4F28813981C85FE0
:102F5000D0402330310599F01AC0CE018F589F4FD1
:102F60002D813E81B9010E94091911C0CE018058FE
:102F70009F4F2D813E81B9010E94091908C0CE01E1
:102F800086579F4F2D813E81B9010E94091927E77D
:102F900030E080E090E0B9010E94FD189E838D83AF
:102FA00089858F5F89878D819E81009709F0A7CFE2
:102FB0008985843029F089E790E00E94C807CEC057
:102FC0008DB79EB70C970FB6F8949EBF0FBE8DBFFE
:102FD000EDB7FEB73196CE018C569F4F918380831B
:102FE00084E690E09383828387E890E095838483EE
:102FF000CE018F589F4F97838683CE0180589F4F75
:1030000091878087CE0186579F4F938782870E9442
:1030100051192DB73EB7245F3F4F0FB6F8943EBF0E
:103020000FBE2DBFCE018C569F4F0E94C8071B8636
:103030001A82198277C044E152E029813A81C9019C
:10304000880F991F820F931F9C01220F331F220F9D
:10305000331F820F931F9A01280F391FCE018F58FB
:103060009F4FB9010E941019009709F456C04AEA0F
:1030700052E089819A819C01220F331FC901880F78
:10308000991F880F991F820F931F9A01280F391FCC
:10309000CE0180589F4FB9010E9410190097E9F1A5
:1030A00081E08B871C821B820E940117CE0186570C
:1030B0009F4F28EB30E0B9010E941019009739F0BA
:1030C0000E94CB148DEB90E00E94C80726C0CE0171
:1030D00086579F4F22EC30E0B9010E9410190097EB
:1030E00039F00E94CC158DEB90E00E94C80715C006
:1030F000CE0186579F4F25EC30E0B9010E94101990
:10310000009739F00E9456168DEB90E00E94C80798
:1031100004C089EC90E00E94C80789819A810196D9
:103120009A83898389819A818A3091050CF483CFAF
:103130008B85882399F48CED90E00E94C8078B81E1
:103140008F5F8B838B81833048F081E08C830E947A
:10315000E01604C089E790E00E94C807CE010D96F2
:1031600060E070E044E650E00E9402191A867FCECB
:103170008A85843608F47BCECE010D9660E070E03F
:1031800044E650E00E9402191A8671CE2F923F92B7
:103190004F925F926F927F928F929F92AF92BF9267
:1031A000CF92DF92EF92FF920F931F93CF93DF9313
:1031B000CDB7DEB7CA1BDB0B0FB6F894DEBF0FBE70
:1031C000CDBF09942A88398848885F846E847D84BD
:1031D0008C849B84AA84B984C884DF80EE80FD80BF
:1031E0000C811B81AA81B981CE0FD11D0FB6F89435
:1031F000DEBF0FBECDBFED0108954EE053E00E944B
:103200002A190895DC0101C06D9341505040E0F748
:103210000895FB01DC0101900D920020E1F7089573
:10322000FB0151915523A9F0BF01DC014D914517D8
:103230004111E1F759F4CD010190002049F04D9181
:1032400040154111C9F3FB014111EFCF81E090E03E
:1032500001970895FA01A191B081009719F4109790
:10326000E1F0CD01DC01CD010D90002011F4C00191
:1032700013C0FB012191222319F02015D9F7F3CFB8
:10328000FB012191201519F41E92119606C02223EC
:10329000C1F70D900020A1F7D001FA01A193B083EE
:1032A0000895AEE0B0E0E7E5F9E10C94D4180D899B
:1032B0001E898F89988D97FF02C080E090E8019762
:1032C0009E838D831A83098386E08C839E01255E0D
:1032D0003F4FCE010196698D7A8DA9010E94821916
:1032E0004D815E8157FD0AC02F81388542175307F3
:1032F0000CF49A01020F131FF80110822E96E4E0DD
:103300000C94F018ABE0B0E0E8E8F9E10C94C618D2
:103310003C012B015A01FC0117821682838181FD39
:1033200003C06FEF7FEFC6C19AE0892E1E0108949B
:10333000211C311CF3012381F20123FD859123FF20
:1033400081912F01882309F4B2C1853239F423FD1C
:10335000859123FF81912F01853229F490E0B301FB
:103360000E94751BE7CF982FFF24EE249924FFE1DC
:10337000FF15D0F09B3269F09C3228F4903259F05E
:10338000933291F40EC09D3249F0903369F441E0DC
:1033900024C052E0F52A84E0F82A28C098E0F92AEF
:1033A00025C0E0E1FE2A22C0F7FC29C0892F805306
:1033B0008A3070F4F6FE05C0989C902C1124980E6B
:1033C00015C0E89CE02C1124E80EF0E2FF2A0EC0A4
:1033D0009E3229F4F6FC6BC140E4F42A07C09C3607
:1033E00019F450E8F52A02C0983649F4F20123FD99
:1033F000959123FF91912F01992309F0B8CF892F3F
:103400008554833018F08052833038F444E050E023
:10341000A40EB51E5FE359830FC0933631F0933786
:1034200079F0933509F056C020C0F5018081898379
:1034300042E050E0A40EB51E610101E010E012C0B0
:10344000F501C080D180F6FC03C06FEF7FEF02C0B2
:10345000692D70E042E050E0A40EB51EC6010E9446
:103460006A1B8C015FE7F52214C0F501C080D18092
:10347000F6FC03C06FEF7FEF02C0692D70E042E001
:1034800050E0A40EB51EC6010E945F1B8C0150E8DF
:10349000F52AF3FE07C01AC080E290E0B3010E9453
:1034A000751BEA948E2D90E008171907A8F30EC03B
:1034B000F601F7FC8591F7FE81916F0190E0B30171
:1034C0000E94751BE110EA9401501040011511058E
:1034D00079F7EAC0943611F0993669F5F7FE08C01D
:1034E000F501208131814281538184E090E00AC05E
:1034F000F501808191819C01442737FD4095542F2F
:1035000082E090E0A80EB91E9FE6F92257FF09C09D
:1035100050954095309521953F4F4F4F5F4FE0E8D4
:10352000FE2ACA01B901A1012AE030E00E94A11BD4
:10353000D82ED21840C0953729F41F2D1F7E2AE0BF
:1035400030E01DC01F2D197F9F3661F0903720F4A9
:10355000983509F0ACC00FC0903739F0983709F0B2
:10356000A6C004C028E030E00AC0106114FD146059
:1035700020E130E004C014FD166020E132E017FFC6
:1035800008C0F501608171818281938144E050E03F
:1035900008C0F50180819181BC0180E090E042E0AB
:1035A00050E0A40EB51EA1010E94A11BD82ED21876
:1035B0008FE7F82EF122F6FE0BC05EEFF522D9144C
:1035C00038F4F4FE07C0F2FC05C08FEEF82202C00A
:1035D0001D2D01C0192DF4FE0DC0FE01ED0DF11DD4
:1035E0008081803319F499EEF92208C01F5FF2FE42
:1035F00005C003C08F2D867809F01F5F0F2DF3FCE7
:1036000014C0F0FE0FC01E1510F09D2C0BC09D2C99
:103610009E0C911A1E2D06C080E290E0B3010E941C
:10362000751B1F5F1E15C0F304C01E1510F4E11AB0
:1036300001C0EE2404FF0FC080E390E0B3010E94BC
:10364000751B02FF1DC001FD03C088E790E00EC09E
:1036500088E590E00BC0802F867891F001FF02C0D2
:103660008BE201C080E2F7FC8DE290E0B3010E94A2
:10367000751B06C080E390E0B3010E94751B9A940D
:10368000D914C0F3DA94F101ED0DF11D808190E0C1
:10369000B3010E94751BDD20A9F706C080E290E00F
:1036A000B3010E94751BEA94EE20C1F743CEF301EB
:1036B00066817781CB012B96E2E10C94E218FC0144
:1036C0000590615070400110D8F7809590958E0F4D
:1036D0009F1F0895FC016150704001900110D8F7C0
:1036E000809590958E0F9F1F08950F931F93CF93F2
:1036F000DF938C01EB018B8181FF1BC082FF0DC02A
:103700002E813F818C819D812817390764F4E881DF
:10371000F9810193F983E88306C0E885F985802F54
:103720000995892B31F48E819F8101969F838E8329
:1037300002C00FEF1FEFC801DF91CF911F910F91D2
:103740000895FA01AA27283051F1203181F1E89437
:103750006F936E7F6E5F7F4F8F4F9F4FAF4FB1E084
:103760003ED0B4E03CD0670F781F891F9A1FA11D7F
:10377000680F791F8A1F911DA11D6A0F711D811D80
:10378000911DA11D20D009F468943F912AE0269F45
:1037900011243019305D3193DEF6CF010895462FA4
:1037A0004770405D4193B3E00FD0C9F7F6CF462F85
:1037B0004F70405D4A3318F0495D31FD40524193EE
:1037C00002D0A9F7EACFB4E0A695979587957795AB
:1037D0006795BA95C9F700976105710508959B0132
:1037E000AC010A2E06945795479537952795BA95BB
:1037F000C9F7620F731F841F951FA01D0895F894C9
:02380000FFCFF8
:1038020053797374656D2053746172742E2E2E2E4B
:103812000D0A004C4F4700200042414420434F4DC7
:103822004D414E440D0A0055534552204E414D45DF
:10383200203A2025730D0A50617373776F726420EA
:10384200203A2025730D0A4F5045524154494F4E9C
:10385200203A2025730D0A004F50454E004F4B0D64
:103862000A004F4E004F4646004F70657261746900
:103872006F6E204661696C21210D0A0057726F6ECE
:10388200672055736572204E616D65204F7220501E
:10389200617373776F726421210D0A0000000000CA
:1038A20000000000000102020303030304040404F5
:1038B20004040404050505050505050505050505BA
:1038C200050505050606060606060606060606069A
:1038D2000606060606060606060606060606060686
:1038E200060606060707070707070707070707076A
:1038F2000707070707070707070707070707070756
:103902000707070707070707070707070707070745
:103912000707070707070707070707070707070735
:103922000707070708080808080808080808080819
:103932000808080808080808080808080808080805
:1039420008080808080808080808080808080808F5
:1039520008080808080808080808080808080808E5
:1039620008080808080808080808080808080808D5
:1039720008080808080808080808080808080808C5
:1039820008080808080808080808080808080808B5
:1039920008080808080808080808080808080808A5
:1039A2000808080801020341040506420708094302
:1039B20023002A4455534552310000000000000004
:1039C2000000005553455232000000000000000084
:1039D2000000555345523300000000000000000073
:1039E2000055534552340000000000000000000062
:1039F20055534552350000000000000000000055FC
:103A020053455236000000000000000000005553EC
:103A120045523700000000000000000000555345E9
:103A220052380000000000000000000055534552CB
:103A320039000000000000000000005553455231DB
:103A420030000000000000000000555345523100D4
:103A5200000000005553455232000000000055534B
:103A62004552330000000000555345523400000017
:103A72000000555345523500000000005553455291
:103A82003600000000005553455237000000000088
:103A92005553455238000000000055534552390035
:0E3AA200000000005553455231300000000076
:00000001FF
